{
  "_format": "hh-sol-artifact-1",
  "contractName": "DecentralizedVoting",
  "sourceName": "contracts/DecentralizedVoting.sol",
  "abi": [
    {
      "inputs": [],
      "stateMutability": "nonpayable",
      "type": "constructor"
    },
    {
      "anonymous": false,
      "inputs": [
        {
          "indexed": true,
          "internalType": "uint256",
          "name": "id",
          "type": "uint256"
        },
        {
          "indexed": false,
          "internalType": "string",
          "name": "name",
          "type": "string"
        }
      ],
      "name": "CandidateAdded",
      "type": "event"
    },
    {
      "anonymous": false,
      "inputs": [
        {
          "indexed": true,
          "internalType": "uint256",
          "name": "candidateId",
          "type": "uint256"
        },
        {
          "indexed": true,
          "internalType": "address",
          "name": "voter",
          "type": "address"
        }
      ],
      "name": "Voted",
      "type": "event"
    },
    {
      "anonymous": false,
      "inputs": [],
      "name": "VotingEnded",
      "type": "event"
    },
    {
      "anonymous": false,
      "inputs": [],
      "name": "VotingStarted",
      "type": "event"
    },
    {
      "inputs": [
        {
          "internalType": "string",
          "name": "_name",
          "type": "string"
        }
      ],
      "name": "addCandidate",
      "outputs": [],
      "stateMutability": "nonpayable",
      "type": "function"
    },
    {
      "inputs": [
        {
          "internalType": "uint256",
          "name": "",
          "type": "uint256"
        }
      ],
      "name": "candidates",
      "outputs": [
        {
          "internalType": "uint256",
          "name": "id",
          "type": "uint256"
        },
        {
          "internalType": "string",
          "name": "name",
          "type": "string"
        },
        {
          "internalType": "uint256",
          "name": "voteCount",
          "type": "uint256"
        }
      ],
      "stateMutability": "view",
      "type": "function"
    },
    {
      "inputs": [],
      "name": "candidatesCount",
      "outputs": [
        {
          "internalType": "uint256",
          "name": "",
          "type": "uint256"
        }
      ],
      "stateMutability": "view",
      "type": "function"
    },
    {
      "inputs": [],
      "name": "endVoting",
      "outputs": [],
      "stateMutability": "nonpayable",
      "type": "function"
    },
    {
      "inputs": [
        {
          "internalType": "uint256",
          "name": "_candidateId",
          "type": "uint256"
        }
      ],
      "name": "getCandidate",
      "outputs": [
        {
          "components": [
            {
              "internalType": "uint256",
              "name": "id",
              "type": "uint256"
            },
            {
              "internalType": "string",
              "name": "name",
              "type": "string"
            },
            {
              "internalType": "uint256",
              "name": "voteCount",
              "type": "uint256"
            }
          ],
          "internalType": "struct DecentralizedVoting.Candidate",
          "name": "",
          "type": "tuple"
        }
      ],
      "stateMutability": "view",
      "type": "function"
    },
    {
      "inputs": [],
      "name": "getWinner",
      "outputs": [
        {
          "internalType": "string",
          "name": "winnerName",
          "type": "string"
        },
        {
          "internalType": "uint256",
          "name": "winnerVoteCount",
          "type": "uint256"
        }
      ],
      "stateMutability": "view",
      "type": "function"
    },
    {
      "inputs": [],
      "name": "startVoting",
      "outputs": [],
      "stateMutability": "nonpayable",
      "type": "function"
    },
    {
      "inputs": [],
      "name": "totalVotes",
      "outputs": [
        {
          "internalType": "uint256",
          "name": "",
          "type": "uint256"
        }
      ],
      "stateMutability": "view",
      "type": "function"
    },
    {
      "inputs": [
        {
          "internalType": "uint256",
          "name": "_candidateId",
          "type": "uint256"
        }
      ],
      "name": "vote",
      "outputs": [],
      "stateMutability": "nonpayable",
      "type": "function"
    },
    {
      "inputs": [],
      "name": "votingActive",
      "outputs": [
        {
          "internalType": "bool",
          "name": "",
          "type": "bool"
        }
      ],
      "stateMutability": "view",
      "type": "function"
    }
  ],
  "bytecode": "0x608060405234801561001057600080fd5b5033600460006101000a81548173ffffffffffffffffffffffffffffffffffffffff021916908373ffffffffffffffffffffffffffffffffffffffff1602179055506000600460146101000a81548160ff0219169083151502179055506115d88061007c6000396000f3fe608060405234801561001057600080fd5b506004361061009e5760003560e01c806335b8e8201161006657806335b8e82014610137578063408e272714610167578063462e91ec146101855780638e7ea5b2146101a1578063c3403ddf146101c05761009e565b80630121b93f146100a35780630d15fd77146100bf5780631ec6b60a146100dd5780632d35a8a2146100e75780633477ee2e14610105575b600080fd5b6100bd60048036038101906100b89190610ba9565b6101ca565b005b6100c76103d8565b6040516100d49190610be5565b60405180910390f35b6100e56103de565b005b6100ef610507565b6040516100fc9190610be5565b60405180910390f35b61011f600480360381019061011a9190610ba9565b61050d565b60405161012e93929190610c90565b60405180910390f35b610151600480360381019061014c9190610ba9565b6105bf565b60405161015e9190610d77565b60405180910390f35b61016f6106e2565b60405161017c9190610db4565b60405180910390f35b61019f600480360381019061019a9190610f04565b6106f5565b005b6101a9610835565b6040516101b7929190610f4d565b60405180910390f35b6101c8610a16565b005b600460149054906101000a900460ff16610219576040517f08c379a000000000000000000000000000000000000000000000000000000000815260040161021090610fc9565b60405180910390fd5b600160003373ffffffffffffffffffffffffffffffffffffffff1673ffffffffffffffffffffffffffffffffffffffff16815260200190815260200160002060009054906101000a900460ff16156102a6576040517f08c379a000000000000000000000000000000000000000000000000000000000815260040161029d90611035565b60405180910390fd5b6000811180156102b857506002548111155b6102f7576040517f08c379a00000000000000000000000000000000000000000000000000000000081526004016102ee906110a1565b60405180910390fd5b60018060003373ffffffffffffffffffffffffffffffffffffffff1673ffffffffffffffffffffffffffffffffffffffff16815260200190815260200160002060006101000a81548160ff0219169083151502179055506000808281526020019081526020016000206002016000815480929190610374906110f0565b91905055506003600081548092919061038c906110f0565b91905055503373ffffffffffffffffffffffffffffffffffffffff16817f030b0f8dcd86a031eddb071f91882edeac8173663ba775713b677b42b51be44b60405160405180910390a350565b60035481565b600460009054906101000a900473ffffffffffffffffffffffffffffffffffffffff1673ffffffffffffffffffffffffffffffffffffffff163373ffffffffffffffffffffffffffffffffffffffff161461046e576040517f08c379a0000000000000000000000000000000000000000000000000000000008152600401610465906111aa565b60405180910390fd5b600460149054906101000a900460ff16156104be576040517f08c379a00000000000000000000000000000000000000000000000000000000081526004016104b590611216565b60405180910390fd5b6001600460146101000a81548160ff0219169083151502179055507f877e2548498f42b7975a186b94ef1d32c86d420b7b806dd2be2bea293b89590460405160405180910390a1565b60025481565b600060205280600052604060002060009150905080600001549080600101805461053690611265565b80601f016020809104026020016040519081016040528092919081815260200182805461056290611265565b80156105af5780601f10610584576101008083540402835291602001916105af565b820191906000526020600020905b81548152906001019060200180831161059257829003601f168201915b5050505050908060020154905083565b6105c7610b3e565b6000821180156105d957506002548211155b610618576040517f08c379a000000000000000000000000000000000000000000000000000000000815260040161060f906110a1565b60405180910390fd5b6000808381526020019081526020016000206040518060600160405290816000820154815260200160018201805461064f90611265565b80601f016020809104026020016040519081016040528092919081815260200182805461067b90611265565b80156106c85780601f1061069d576101008083540402835291602001916106c8565b820191906000526020600020905b8154815290600101906020018083116106ab57829003601f168201915b505050505081526020016002820154815250509050919050565b600460149054906101000a900460ff1681565b600460009054906101000a900473ffffffffffffffffffffffffffffffffffffffff1673ffffffffffffffffffffffffffffffffffffffff163373ffffffffffffffffffffffffffffffffffffffff1614610785576040517f08c379a000000000000000000000000000000000000000000000000000000000815260040161077c906111aa565b60405180910390fd5b604051806060016040528060025481526020018281526020016000815250600080600260008154809291906107b9906110f0565b9190505581526020019081526020016000206000820151816000015560208201518160010190816107ea9190611442565b50604082015181600201559050506002547fe83b2a43e7e82d975c8a0a6d2f045153c869e111136a34d1889ab7b598e396a38260405161082a9190611514565b60405180910390a250565b60606000600460009054906101000a900473ffffffffffffffffffffffffffffffffffffffff1673ffffffffffffffffffffffffffffffffffffffff163373ffffffffffffffffffffffffffffffffffffffff16146108c9576040517f08c379a00000000000000000000000000000000000000000000000000000000081526004016108c0906111aa565b60405180910390fd5b60006003541161090e576040517f08c379a000000000000000000000000000000000000000000000000000000000815260040161090590611582565b60405180910390fd5b60008080600190505b600254811161096c5782600080838152602001908152602001600020600201541115610959576000808281526020019081526020016000206002015492508091505b8080610964906110f0565b915050610917565b50600080828152602001908152602001600020600101805461098d90611265565b80601f01602080910402602001604051908101604052809291908181526020018280546109b990611265565b8015610a065780601f106109db57610100808354040283529160200191610a06565b820191906000526020600020905b8154815290600101906020018083116109e957829003601f168201915b5050505050935081925050509091565b600460009054906101000a900473ffffffffffffffffffffffffffffffffffffffff1673ffffffffffffffffffffffffffffffffffffffff163373ffffffffffffffffffffffffffffffffffffffff1614610aa6576040517f08c379a0000000000000000000000000000000000000000000000000000000008152600401610a9d906111aa565b60405180910390fd5b600460149054906101000a900460ff16610af5576040517f08c379a0000000000000000000000000000000000000000000000000000000008152600401610aec90610fc9565b60405180910390fd5b6000600460146101000a81548160ff0219169083151502179055507f7a19ed057db79e3c2fa0b97a54b43bef4fce74b31bb6c01af514b9a18a7f70ab60405160405180910390a1565b60405180606001604052806000815260200160608152602001600081525090565b6000604051905090565b600080fd5b600080fd5b6000819050919050565b610b8681610b73565b8114610b9157600080fd5b50565b600081359050610ba381610b7d565b92915050565b600060208284031215610bbf57610bbe610b69565b5b6000610bcd84828501610b94565b91505092915050565b610bdf81610b73565b82525050565b6000602082019050610bfa6000830184610bd6565b92915050565b600081519050919050565b600082825260208201905092915050565b60005b83811015610c3a578082015181840152602081019050610c1f565b60008484015250505050565b6000601f19601f8301169050919050565b6000610c6282610c00565b610c6c8185610c0b565b9350610c7c818560208601610c1c565b610c8581610c46565b840191505092915050565b6000606082019050610ca56000830186610bd6565b8181036020830152610cb78185610c57565b9050610cc66040830184610bd6565b949350505050565b610cd781610b73565b82525050565b600082825260208201905092915050565b6000610cf982610c00565b610d038185610cdd565b9350610d13818560208601610c1c565b610d1c81610c46565b840191505092915050565b6000606083016000830151610d3f6000860182610cce565b5060208301518482036020860152610d578282610cee565b9150506040830151610d6c6040860182610cce565b508091505092915050565b60006020820190508181036000830152610d918184610d27565b905092915050565b60008115159050919050565b610dae81610d99565b82525050565b6000602082019050610dc96000830184610da5565b92915050565b600080fd5b600080fd5b7f4e487b7100000000000000000000000000000000000000000000000000000000600052604160045260246000fd5b610e1182610c46565b810181811067ffffffffffffffff82111715610e3057610e2f610dd9565b5b80604052505050565b6000610e43610b5f565b9050610e4f8282610e08565b919050565b600067ffffffffffffffff821115610e6f57610e6e610dd9565b5b610e7882610c46565b9050602081019050919050565b82818337600083830152505050565b6000610ea7610ea284610e54565b610e39565b905082815260208101848484011115610ec357610ec2610dd4565b5b610ece848285610e85565b509392505050565b600082601f830112610eeb57610eea610dcf565b5b8135610efb848260208601610e94565b91505092915050565b600060208284031215610f1a57610f19610b69565b5b600082013567ffffffffffffffff811115610f3857610f37610b6e565b5b610f4484828501610ed6565b91505092915050565b60006040820190508181036000830152610f678185610c57565b9050610f766020830184610bd6565b9392505050565b7f566f74696e67206973206e6f74206163746976652e0000000000000000000000600082015250565b6000610fb3601583610c0b565b9150610fbe82610f7d565b602082019050919050565b60006020820190508181036000830152610fe281610fa6565b9050919050565b7f596f75206861766520616c726561647920766f7465642e000000000000000000600082015250565b600061101f601783610c0b565b915061102a82610fe9565b602082019050919050565b6000602082019050818103600083015261104e81611012565b9050919050565b7f496e76616c69642063616e6469646174652049442e0000000000000000000000600082015250565b600061108b601583610c0b565b915061109682611055565b602082019050919050565b600060208201905081810360008301526110ba8161107e565b9050919050565b7f4e487b7100000000000000000000000000000000000000000000000000000000600052601160045260246000fd5b60006110fb82610b73565b91507fffffffffffffffffffffffffffffffffffffffffffffffffffffffffffffffff820361112d5761112c6110c1565b5b600182019050919050565b7f4f6e6c7920746865206f776e65722063616e20706572666f726d20746869732060008201527f616374696f6e2e00000000000000000000000000000000000000000000000000602082015250565b6000611194602783610c0b565b915061119f82611138565b604082019050919050565b600060208201905081810360008301526111c381611187565b9050919050565b7f566f74696e6720697320616c7265616479206163746976652e00000000000000600082015250565b6000611200601983610c0b565b915061120b826111ca565b602082019050919050565b6000602082019050818103600083015261122f816111f3565b9050919050565b7f4e487b7100000000000000000000000000000000000000000000000000000000600052602260045260246000fd5b6000600282049050600182168061127d57607f821691505b6020821081036112905761128f611236565b5b50919050565b60008190508160005260206000209050919050565b60006020601f8301049050919050565b600082821b905092915050565b6000600883026112f87fffffffffffffffffffffffffffffffffffffffffffffffffffffffffffffffff826112bb565b61130286836112bb565b95508019841693508086168417925050509392505050565b6000819050919050565b600061133f61133a61133584610b73565b61131a565b610b73565b9050919050565b6000819050919050565b61135983611324565b61136d61136582611346565b8484546112c8565b825550505050565b600090565b611382611375565b61138d818484611350565b505050565b5b818110156113b1576113a660008261137a565b600181019050611393565b5050565b601f8211156113f6576113c781611296565b6113d0846112ab565b810160208510156113df578190505b6113f36113eb856112ab565b830182611392565b50505b505050565b600082821c905092915050565b6000611419600019846008026113fb565b1980831691505092915050565b60006114328383611408565b9150826002028217905092915050565b61144b82610c00565b67ffffffffffffffff81111561146457611463610dd9565b5b61146e8254611265565b6114798282856113b5565b600060209050601f8311600181146114ac576000841561149a578287015190505b6114a48582611426565b86555061150c565b601f1984166114ba86611296565b60005b828110156114e2578489015182556001820191506020850194506020810190506114bd565b868310156114ff57848901516114fb601f891682611408565b8355505b6001600288020188555050505b505050505050565b6000602082019050818103600083015261152e8184610c57565b905092915050565b7f4e6f20766f7465732063617374207965742e0000000000000000000000000000600082015250565b600061156c601283610c0b565b915061157782611536565b602082019050919050565b6000602082019050818103600083015261159b8161155f565b905091905056fea2646970667358221220a027a4e4c9907eed406054587097598685d47fab15b150f19d366f9d554c3da664736f6c63430008120033",
  "linkReferences": {},
  "deployedLinkReferences": {}
}